:040000000CEF00F011
:10000800FACF2DF1FBCF2EF1E9CF2FF109ED08F052
:1000180000EE32F0C40EF66E040EF76E0900F5CF4E
:10002800EEFF00EE00F010EE32F03DEC00F004EED2
:1000380000F011EE08F03DEC00F005EE20F010EEB7
:1000480008F03DEC00F005EE30F010EE03F03DEC6A
:1000580000F005EE70F010EE03F03DEC00F00FEE4E
:1000680070F010EE0FF03DEC00F0000EF86E33EF7C
:1000780011F0EE6AE550E150FCE1E250FAE11200BD
:100088000900F5CFEEFFE550E150FAE1E250F8E162
:02009800120054
:100400000034034D006900630072006F00630068F0
:100410000069007000200054006500630068006EF1
:10042000006F006C006F0067007900200049006ECB
:100430000063002E002A034D004900430052004F84
:100440000045004D004200450044004500440020A6
:1004500000550053004200200049004F00200009D1
:10046000022900010100C03209040000020300005B
:1004700000092111010001221D0007058103400030
:1004800001070501034000010600FF0901A1011950
:10049000012940150026FF007508954081001901CB
:1004A00029409100C01201000200000008D8044257
:1004B00000020001020001BD040104350404030927
:1004C000045F0400010065EF02F01D666AEF02F0B0
:1004D0006CEF02F096EF02F0000E6D6E0101016FFD
:1004E000000E696E010101510101016F160E6F6E60
:1004F000010101510101016F9F0E6B6E010101515C
:100500000101016F7B0E696E0101015189EF02F05B
:100510006D866DA68EEF02F090EF02F088EF02F08C
:100520000101016F010E1D6E010101511D04D8A4CE
:100530009CEF02F09EEF02F0B5EF02F06DBAA3EF70
:1005400002F0A5EF02F0B5EF02F0000E686E0101B7
:10055000016F000E696E0101015169806988010116
:10056000016F020E1D6E0101015168A4BAEF02F085
:10057000BCEF02F0C6EF02F069A4C1EF02F0C3EFD6
:1005800002F0C6EF02F06894F4EC10F06DA2CBEF2D
:1005900002F0CDEF02F0D0EF02F0A19AD0EF03F01D
:1005A00068A0D5EF02F0D7EF02F0FCEF02F069A0EF
:1005B000DCEF02F0DEEF02F0FCEF02F06AEC09F093
:1005C0000101016F040E1D6E010101510501000EB4
:1005D00004010401026F0501050E0401036F080EFA
:1005E00004010401016F000E04010401006F8C0E70
:1005F000040104010013689068A801EF03F003EF01
:1006000003F00DEF03F069A808EF03F00AEF03F021
:100610000DEF03F018EC11F0689868AC12EF03F0DE
:1006200014EF03F033EF03F069AC19EF03F01BEFA5
:1006300003F033EF03F0010E010101010C6F000E16
:1006400001010D6F000E010101010A6F000E010191
:100650000B6F730E01010101086F000E0101096F9C
:10066000DCEC0EF0689C68AA38EF03F03AEF03F078
:1006700043EF03F069AA3FEF03F041EF03F043EFCC
:1006800003F0A8EC10F068A248EF03F04AEF03F083
:100690006AEF03F069A24FEF03F051EF03F06AEF46
:1006A00003F0010E010101010C6F000E01010D6F3D
:1006B000000E010101010A6F000E01010B6FFF0E18
:1006C00001010101086F7F0E0101096FDCEC0EF0E2
:1006D000000E6A6E040E1D6070EF03F072EF03F0FF
:1006E00075EF03F0A19AD0EF03F069A67AEF03F05B
:1006F0007CEF03F0CFEF03F00101016F000E010169
:100700000101006F01010151030E010101010065AA
:100710008CEF03F08EEF03F090EF03F0CFEF03F0D8
:1007200068A695EF03F097EF03F0C0EF03F06CCFEE
:100730001BF068961B50780BD8A4A1EF03F0A3EF31
:1007400003F0A7EF03F0C9EC08F0BEEF03F0000ED2
:10075000010101010C6F000E01010D6F1B0E010163
:1007600001010A6F000E01010B6F720E0101010100
:10077000086F000E0101096FDCEC0EF0C2EF03F010
:10078000CFEF03F001010101002B030E0101010174
:100790000065CDEF03F0CFEF03F090EF03F0A19AE7
:1007A00012006D9803BED7EF03F0D9EF03F032EFDC
:1007B00004F009AEDEEF03F0E0EF03F010EF04F019
:1007C0000101066F020E266E01010651010E0F2473
:1007D000E96E000E1020EA6E000EEF6E0FC0E9FF0A
:1007E00010C0EAFFC80EEF6E010E1324E96E000E72
:1007F0001420EA6E080EEF6E020E1324E96E000E4E
:100800001420EA6E0501200EEE6E0501050EED6E58
:1008100013C0E9FF14C0EAFFC80EEF6E30EF04F01A
:10082000010E1324E96E000E1420EA6E080EEF6E1E
:10083000020E1324E96E000E1420EA6E0501000E6C
:10084000EE6E0501050EED6E13C0E9FF14C0EAFF60
:100850008C0EEF6E0FC0E9FF10C0EAFF840EEF6E42
:10086000E3EF04F009BE37EF04F039EF04F0E3EFF3
:1008700004F00501050100AF40EF04F042EF04F081
:10088000B5EF04F000EE04F0050115EE06F0E652B7
:10089000EE52ED50E55C02E1EF50E75CD8B053EF6B
:1008A00004F055EF04F059EF04F006C504F007C555
:1008B00005F047EC07F00101066F010E266E0101FD
:1008C0000651010E1324E96E000E1420EA6E080E84
:1008D000EF6E020E1324E96E000E1420EA6E05017D
:1008E000000EEE6E0501050EED6E13C0E9FF14C09B
:1008F000EAFF800EEF6E0101066F000E296E010106
:100900000651010E1524E96E000E1620EA6E080E3F
:10091000EF6E020E1524E96E000E1620EA6E050138
:10092000000EEE6E0501050EED6E15C0E9FF16C056
:10093000EAFF840EEF6E0101066F010E296E0101C0
:100940000651020E0F24E96E000E1020EA6E05011A
:10095000200EEE6E0501050EED6E0FC0E9FF10C012
:10096000EAFFC80EEF6EE3EF04F00101066F020E1E
:10097000266E01010651010E0F24E96E000E1020B3
:10098000EA6E000EEF6E0FC0E9FF10C0EAFFC80E5E
:10099000EF6E010E1324E96E000E1420EA6E080EAD
:1009A000EF6E020E1324E96E000E1420EA6E0501AC
:1009B000200EEE6E0501050EED6E13C0E9FF14C0AA
:1009C000EAFFC80EEF6E1200050105010205D8A46A
:1009D000ECEF04F0EEEF04F013EF05F00501005129
:1009E0001F0B0009D8A4F7EF04F0F9EF04F013EFA0
:1009F00005F0038E050105010151030AD8A403EF98
:100A000005F005EF05F00DEF05F001010B6F010E8C
:100A10002A6E01010B5113EF05F001010B6F000E5F
:100A20002A6E01010B510501050102671AEF05F05D
:100A30001CEF05F0BCEF05F0050100511F0B020A89
:100A4000D8A425EF05F027EF05F0BCEF05F0050170
:100A500004510F0B0009D8B430EF05F032EF05F068
:100A6000BCEF05F0038E0501050104BF3AEF05F068
:100A70003CEF05F04EEF05F0050104510F0B020DA0
:100A8000170EF324E96EEA6A000EEA220101EECFA6
:100A900009F10101EDCF0AF15EEF05F00501045106
:100AA0000F0B020D0F0EF324E96EEA6A000EEA2224
:100AB0000101EECF09F10101EDCF0AF105010501B8
:100AC0000151030AD8A467EF05F069EF05F071EF53
:100AD00005F009C1E9FF0AC1EAFF840EEF6EBCEF21
:100AE00005F0050104510F0B01010B6F700E0101A0
:100AF0000C6F0F0E0D6F01010B5101010C27E86AFD
:100B000001010BBFE86801010D230CC107F10DC104
:100B100008F107C1E9FF08C1EAFFFE0EEE16FF0E5D
:100B2000ED160501050104AF98EF05F09AEF05F009
:100B3000ACEF05F009C1E9FF0AC1EAFF000EEF6E54
:100B4000040E01010101091B09C1E9FF0AC1EAFF05
:100B5000400EEF6EBCEF05F009C1E9FF0AC1EAFFE4
:100B6000880EEF6E040E01010101091B09C1E9FFA6
:100B70000AC1EAFFC80EEF6E1200050100511F0BFB
:100B80000101106F01011005D8B4C9EF05F0CBEFDA
:100B900005F0CDEF05F083EF06F0050105010451E6
:100BA000D8B4D5EF05F0D7EF05F0D9EF05F083EF16
:100BB00006F0050105010151060AD8A4E2EF05F08F
:100BC000E4EF05F029EF06F01EEF06F01C04D8A4B0
:100BD000ECEF05F0EEEF05F0FCEF05F0710E006EA6
:100BE000040E016E090E046E000E056E0101106FF9
:100BF000C00E036E0101105129EF06F01C04D8A4A9
:100C000004EF06F006EF06F0FCEF05F0880E006E2C
:100C1000040E016E1D0E046E000E056E0101106FB4
:100C2000C00E036E0101105129EF06F00101106F93
:100C3000800E036E0101105129EF06F00501050138
:100C40000351210AC3E0030AD9E0010AEFE029EFCA
:100C500006F005010039E832030B0101106F0101B4
:100C60001005D8B436EF06F038EF06F03AEF06F08C
:100C700083EF06F072EF06F083EF06F0280E006EA9
:100C8000000E016E010E046E000E056E0101106F64
:100C9000C10E036E0101105183EF06F00101106FC8
:100CA000800E036E0101105103C528F083EF06F09A
:100CB000270E006E000E016E010E046E000E056E12
:100CC0000101106F810E036E0101105183EF06F0D8
:100CD0000101106F800E036E0101105102C527F053
:100CE00083EF06F0050105010151010AC5E0030A81
:100CF000C5E0010ADDE00A0ABFE0030ACFE0010A0D
:100D0000E7E083EF06F01200010E1524E96E000EF5
:100D10001620EA6EEF5001010101066F0101010189
:100D200006510A5C000E0B58D8B099EF06F09BEF05
:100D300006F09FEF06F00AC006F1A8EF06F00101E9
:100D4000010106510A5C0A6E0B50D8A00B040B6E11
:100D50000101086F000E01010101076F0101085137
:100D6000C7EF06F00501200E010101010725E96E1C
:100D7000EA6A0501050EEA2206C0E1FF07C0E2FFAC
:100D8000EFCFE7FF064A072A01010101072B010106
:100D90000101065101010101075DD8A0D2EF06F063
:100DA000D4EF06F0B2EF06F00B500A10D8B4DBEF28
:100DB00006F0DDEF06F010EF07F0010E1324E96EE8
:100DC000000E1420EA6E080EEF6E020E1324E96E78
:100DD000000E1420EA6E0501200EEE6E0501050ED0
:100DE000ED6E15C0E9FF16C0EAFFEF500101086F74
:100DF000010108BDFEEF06F000EF07F008EF07F075
:100E000013C0E9FF14C0EAFFC80EEF6E0EEF07F043
:100E100013C0E9FF14C0EAFF880EEF6E46EF07F03B
:100E2000010E1324E96E000E1420EA6E080EEF6E18
:100E3000020E1324E96E000E1420EA6E0501000E66
:100E4000EE6E0501050EED6E13C0E9FF14C0EAFF5A
:100E5000840EEF6E00EE0CF0EE50EE10ED10D8B4F4
:100E600034EF07F036EF07F045EF07F000EE0CF037
:100E700002D845EF07F00500FA6EEE50FD6EEE5019
:100E8000FE6EEE50FF6EFA501200099E1200080E20
:100E9000045C000E0558D8B050EF07F052EF07F091
:100EA00075EF07F004C007F105C008F125665BEF98
:100EB00007F05DEF07F065EF07F00101096F010E24
:100EC000256E0101095173EF07F02504D8A46BEFDB
:100ED00007F06DEF07F073EF07F00101096F020EE5
:100EE000256E010109517CEF07F0080E0101010197
:100EF000076F000E0101086F0FC0E9FF10C0EAFF85
:100F0000FD0EEF160FC0E9FF10C0EAFFFE0EEF1650
:100F10000FC0E9FF10C0EAFF010101010851EF1203
:100F2000010E0F24E96E000E1020EA6E010107C1C8
:100F3000EFFF010101010751045C046E0101010191
:100F400008510558056E0501200E1E6E0501050E9F
:100F50001F6E03B0AEEF07F0B0EF07F0DDEF07F064
:100F6000D0EF07F000C0F6FF01C0F7FFF86A1EC01F
:100F7000E1FF1FC0E2FF030EF76403D00800F55045
:100F800005D0F6CFE9FFF7CFEAFFEF50E76E004A52
:100F9000012A1E4A1F2A010101010707D8A00807DC
:100FA0000101010108510711D8A4D9EF07F0DBEFC7
:100FB00007F0B2EF07F008EF08F0FDEF07F000C010
:100FC000F6FF01C0F7FFF86A1EC0E1FF1FC0E2FF95
:100FD000030EF76403D00800F55005D0F6CFE9FF03
:100FE000F7CFEAFFEF50E76E004A012A1E4A1F2A98
:100FF000010101010707D8A00807010101010851FB
:101000000711D8A406EF08F008EF08F0DFEF07F0AB
:1010100012000600EACF30F1E1CF31F1E2CF32F138
:10102000D9CF33F1DACF34F1F3CF35F1F4CF36F154
:10103000F6CF37F1F7CF38F1F8CF39F1F5CF3AF1F4
:101040009E809EA026EF08F028EF08F0AAEF08F097
:1010500001012A6F000ED56E01012A5101012A6F8C
:10106000000ECD6E01012A5122C0E9FF23C0EAFF24
:10107000EF34E836010B01012A6F01012A51010109
:101080000101286F0101296B23502210D8A44BEFD6
:1010900008F04DEF08F054EF08F0000E01010101D7
:1010A000286F000E0101296F01010101295128114A
:1010B000D8A45DEF08F05FEF08F094EF08F00101AD
:1010C0002A6FEE0E04010401C06F01012A51D6CF30
:1010D000C2F4D7CFC1F401012A6F400E0101010112
:1010E0003F6F01012A510401C00E010101013D6F52
:1010F0000401040E01013E6F01012B6F010E01017D
:1011000001013C6F01012B5101012C6F010E010106
:1011100001013B6F01012C51AEEC0BF03BC122F001
:101120003CC123F08328836E000ED76E000ED66E6E
:101130000B0ECF6EDB0ECE6EF2949E9001012A6FE5
:10114000B80ED56E01012A5101012A6FB10ECD6E84
:1011500001012A51ACEF08F03AC1F5FF39C1F8FF9F
:1011600038C1F7FF37C1F6FF36C1F4FF35C1F3FFD1
:1011700034C1DAFF33C1D9FF32C1E2FF31C1E1FF2F
:1011800030C1EAFF2FC1E9FF2EC1FBFF2DC1FAFFDD
:1011900011001B50FD0BD8A4D0EF08F0D2EF08F0DF
:1011A0005DEF09F01BC003F17E0E01010317010181
:1011B000D8900331040D0401000EF324156E166A55
:1011C0000401040E162215C013F016C014F0040E0C
:1011D000131A15C0E9FF16C0EAFFEF30E8320F0B13
:1011E0000D0AD8A4F6EF08F0F8EF08F059EF09F06F
:1011F000200E0101036F050E046F020E1524E96E27
:10120000000E1620EA6E0101EE520451ED1803C1E2
:10121000E8FFD8B4EF18D8A410EF09F012EF09F0E6
:1012200055EF09F0020E1524E96E000E1620EA6E45
:101230000501000EEE6E0501050EED6E0101036F56
:10124000000E01010101026F01010351070E0101AE
:10125000010102652EEF09F030EF09F032EF09F0DD
:1012600055EF09F00501200E010101010225E96E8B
:10127000EA6A0501050EEA220501000E01010101DD
:101280000225E16EE26A0501050EE222EFCFE7FFDB
:1012900001010101022B070E01010101026553EF5B
:1012A00009F055EF09F032EF09F02BEC0FF05BEF8E
:1012B00009F06FEC10F069EF09F01B50FD0B040A08
:1012C000D8A465EF09F067EF09F069EF09F0A5EC24
:1012D0000DF01200000E6A6E000E686E0101036FC1
:1012E000160E6F6E010103510101036F9F0E6B6EAD
:1012F000010103510101036F7B0E696E010103516E
:101300006D8C0101036F000E6E6E01010351000E22
:10131000010101010C6F000E01010D6F000E0101B2
:1013200001010A6F000E01010B6F710E0101010135
:10133000086F0F0E0101096FD0EC10F06D9C0101D8
:10134000036F000E01010101026F01010351070E3D
:10135000010101010265AFEF09F0B1EF09F0B3EF50
:1013600009F0D6EF09F0010101010251040D040159
:10137000000EF324E96EEA6A0401040EEA22000E6C
:10138000EE6E000EEE6E000EEE6E000EED6EED5285
:10139000ED5201010101022B070E0101010102655D
:1013A000D4EF09F0D6EF09F0B3EF09F0160E706E26
:1013B000DBEF09F0689668B6E0EF09F0E2EF09F0BC
:1013C000DAEF09F00101036F000E036E0101035112
:1013D0000101036F000E096E01010351000E0A6E38
:1013E000000E0B6E6D980401080E0F6E0401040EC2
:1013F000106E0101036F000E1C6E0101035101010B
:10140000036F000E1D6E010103511200050105015D
:101410000051800AD8A40FEF0AF011EF0AF09FEFF5
:101420000AF00101076FC00E036E0101075194EF2E
:101430000AF0A50E006E040E016E120E046E000E70
:10144000056E9FEF0AF0050105010251020DC10E64
:10145000F324F66EF76A040EF7220900F5CF00F0C8
:101460000A00F5CF01F0020E00240101076F000E03
:1014700001200101086F07C1F6FF08C1F7FFF86AF4
:10148000030EF76407D00900F5CF04F00900F5CF8B
:1014900005F008D0F6CFE9FFF7CFEAFFEECF04F072
:1014A000EECF05F09FEF0AF0030E05010501026182
:1014B0005CEF0AF05EEF0AF084EF0AF00501050127
:1014C0000251020DB70EF324F66EF76A040EF722EE
:1014D0000900F5CF00F00A00F5CF01F00050F66EDC
:1014E000E96E030EEA6E0150EA6403D0EA6EEF5033
:1014F00003D0F76E0800F5500101076F0101075195
:10150000046E056A8AEF0AF00101076F000E036E90
:10151000010107519FEF0AF00101076F000E036EF2
:10152000010107519FEF0AF0050105010351010A6E
:1015300080E0030A88E0010AB7E08CEF0AF01200AD
:1015400005010039E832030B0009D8B4AAEF0AF00C
:10155000ACEF0AF0AEEF0AF02DEF0BF012EF0BF04C
:10156000038E0101066F080E1D6E010106512DEF5D
:101570000BF006EC0AF02DEF0BF07EEC0EF02DEFE9
:101580000BF01C0E006E000E016E03800101066F51
:10159000010E046E01010651038E2DEF0BF0ADEC30
:1015A0000CF02DEF0BF0E4EC04F02DEF0BF0240E1B
:1015B000050105010425006E016A000E0122038069
:1015C0000101066F010E046E01010651038E2DEF1D
:1015D0000BF0038E240E050105010425E96EEA6A6D
:1015E000000EEA22050102C5EFFF2DEF0BF0000E01
:1015F000010101010C6F000E01010D6F000E0101D0
:1016000001010A6F000E01010B6F020E01010101C1
:10161000086F000E0101096FDCEC0EF02DEF0BF0EE
:101620002DEF0BF0050105010151000AB8E0010A98
:10163000BAE0020AB8E0060A93E0030A9AE0010A57
:10164000D6E00F0A9EE0010A98E0030AB0E0010A22
:10165000C0E0070AE5E010EF0BF012000101010104
:101660001451D8B436EF0BF038EF0BF04AEF0BF013
:10167000010101011351020D0F0EF324E96EEA6A14
:10168000000EEA220101EECF18F10101EDCF19F1B0
:101690005AEF0BF0010101011351020D170EF32453
:1016A000E96EEA6A000EEA220101EECF18F10101AB
:1016B000EDCF19F1020E010101011825E96E000EAE
:1016C000010101011921EA6E010115C1EEFF0101BD
:1016D00016C1EDFF010E010101011825E96E000E92
:1016E000010101011921EA6E010117C1EFFF18C1C3
:1016F000E9FF19C1EAFF400EEF1618C1E9FF19C151
:10170000EAFF880EEF12010101011451D8B48BEFEA
:101710000BF08DEF0BF09BEF0BF00101010113516A
:10172000020D0F0EF324E96EEA6A000EEA22040E9F
:10173000EF1AA7EF0BF0010101011351020D170E73
:10174000F324E96EEA6A000EEA22040EEF1A18C1C9
:1017500013F119C114F1ADEF0BF0120001010101F9
:101760003C51D8B4B6EF0BF0B8EF0BF0CAEF0BF06A
:10177000010101013B51020D0F0EF324E96EEA6AEB
:10178000000EEA220101EECF40F10101EDCF41F15F
:10179000DAEF0BF0010101013B51020D170EF324AA
:1017A000E96EEA6A000EEA220101EECF40F1010182
:1017B000EDCF41F1020E010101014025E96E000E5D
:1017C000010101014121EA6E01013DC1EEFF01016C
:1017D0003EC1EDFF010E010101014025E96E000E41
:1017E000010101014121EA6E01013FC1EFFF40C14A
:1017F000E9FF41C1EAFF400EEF1640C1E9FF41C1D8
:10180000EAFF880EEF12010101013C51D8B40BEF41
:101810000CF00DEF0CF01BEF0CF0010101013B513E
:10182000020D0F0EF324E96EEA6A000EEA22040E9E
:10183000EF1A27EF0CF0010101013B51020D170EC9
:10184000F324E96EEA6A000EEA22040EEF1A40C1A0
:101850003BF141C13CF12DEF0CF012001F0E1D6455
:1018600034EF0CF036EF0CF03DEF0CF06DA23BEFD7
:101870000CF03DEF0CF03FEF0CF0ACEF0CF020C0A3
:10188000E9FF21C0EAFFEF34E836010B0101026FE6
:101890000101025101010101006F0101016B2150A1
:1018A0002010D8A456EF0CF058EF0CF05FEF0CF0BE
:1018B000000E01010101006F000E0101016F010125
:1018C000010101510011D8A468EF0CF06AEF0CF08F
:1018D000ACEF0CF004010401806981C481FF0101B7
:1018E000026FB10ECD6E010102510101026FB80EFF
:1018F000D56E010102510101026F000E04010401C5
:10190000806F0101025185EF0CF00101026F400E62
:1019100001010101176F010102510401800E010153
:101920000101156F0401040E0101166F0101036F1F
:10193000000E01010101146F010103510101046F47
:10194000010E01010101136F010104512EEC0BF096
:1019500013C120F014C121F01200000E0501050191
:10196000206F000E05010501216F0CEF0DF0038EB5
:101970000501050120812A04D8A4C1EF0CF0C3EFB2
:101980000CF0C6EF0CF005010501208317EF0DF0F8
:10199000038E17EF0DF0038E0501050104BFD3EF91
:1019A0000CF0D5EF0CF0E7EF0CF0050104510F0B34
:1019B000020D170EF324E96EEA6A000EEA22010115
:1019C000EECF07F10101EDCF08F1F7EF0CF00501C3
:1019D00004510F0B020D0F0EF324E96EEA6A000E9C
:1019E000EA220101EECF07F10101EDCF08F107C1B5
:1019F000E9FF08C1EAFFEF500101096F010109A5E4
:101A000004EF0DF006EF0DF0C6EF0CF0010E05012E
:101A10000501206F17EF0DF0050100511F0B000AA3
:101A2000A6E0010AB5E0030AB6E017EF0DF003AE39
:101A30001CEF0DF01EEF0DF02BEF0DF00501200E49
:101A4000006E0501050E016E03800101096F020E93
:101A5000046E0101095112000401000E010101018F
:101A60001C6F0401040E01011D6F010101011A51D7
:101A7000020DF3CF1EF1010101011951040DF350C4
:101A800001011E2501011F6F0101D8901F370101BF
:101A9000D8901F35010101011B6F010101011B419C
:101AA000E8423F0B010101011B6F010101011B51C4
:101AB000040DF350010101011C27000E0101010179
:101AC0001D231CC1E9FF1DC1EAFF7F0EEF160101B6
:101AD00001011A676EEF0DF070EF0DF082EF0DF05F
:101AE000010101011951020D170EF324E96EEA6A92
:101AF000000EEA2201011CC1EEFF01011DC1EDFF34
:101B000092EF0DF0010101011951020D0F0EF324A6
:101B1000E96EEA6A000EEA2201011CC1EEFF010132
:101B20001DC1EDFF1CC1E9FF1DC1EAFFBF0EEF168D
:101B3000040E010101011C25E96E000E01010101E5
:101B40001D21EA6E400EEF1212000FC0E9FF10C017
:101B5000EAFFEF38E832E832010B01010101056FBD
:101B6000040E0F1A1D50080AD8A4B9EF0DF0BBEFF0
:101B70000DF0D3EF0DF002C56EFF6E50D8B4C3EF79
:101B80000DF0C5EF0DF0CDEF0DF00101066F100E59
:101B90001D6E01010651D3EF0DF00101066F040E19
:101BA0001D6E010106512604D8A4D9EF0DF0DBEF1C
:101BB0000DF013EF0EF0020E0F24E96E000E102050
:101BC000EA6E0501200EEE6E0501050EED6E47EC86
:101BD00007F02550020AD8A4F0EF0DF0F2EF0DF057
:101BE000FAEF0DF00FC0E9FF10C0EAFF840EEF6EB0
:101BF00011EF0EF001010101056701EF0EF003EF97
:101C00000EF00BEF0EF00FC0E9FF10C0EAFFC80E98
:101C1000EF6E11EF0EF00FC0E9FF10C0EAFF880E63
:101C2000EF6E15EF0EF0F7EC0FF01200000E010151
:101C30000101256F000E0101266F010101012351F1
:101C40002211D8B426EF0EF028EF0EF077EF0EF049
:101C50000101276F010E01010101246F01012751CC
:101C60003BEF0EF00101D89001012237010123372B
:101C700001010101242B0101010123AF42EF0EF00C
:101C800044EF0EF032EF0EF00101D890010125373C
:101C90000101263701010101225101010101205DED
:101CA000010101012351010101012159D8A05BEF7C
:101CB0000EF05DEF0EF06CEF0EF00101010122510C
:101CC00001010101205F0101010123510101010115
:101CD000215B0101010125810101D890010123331C
:101CE0000101223301010101242F44EF0EF025C12F
:101CF00020F126C121F17DEF0EF01200038E000EBF
:101D0000010101010C6F000E01010D6F000E0101B8
:101D100001010A6F000E01010B6F710E010101013B
:101D2000086F0F0E0101096FD0EC10F0010E0101D8
:101D300001010C6F000E01010D6F000E0101010188
:101D40000A6F000E01010B6F240E01010101086FE3
:101D5000000E0101096FD0EC10F002C51CF01C66EA
:101D6000B4EF0EF0B6EF0EF0BEEF0EF00101076F0C
:101D7000100E1D6E01010751DBEF0EF00101076F20
:101D8000200E1D6E01010751010E010101010C6FB2
:101D9000000E01010D6F1C0E010101010A6F000E02
:101DA00001010B6F010E01010101086F000E01011D
:101DB000096FDCEC0EF01200FFEF0EF035EC10F0C6
:101DC00028EF0FF044EC11F028EF0FF03DEC11F08C
:101DD00028EF0FF041EC11F028EF0FF042EC11F07A
:101DE00028EF0FF043EC11F028EF0FF040EC11F06A
:101DF00028EF0FF000F028EF0FF028EF0FF00101AF
:101E000008C10EF1010109C10FF1010120EF0FF02E
:101E100001010E51010AD2E0030AD4E0010AD6E022
:101E2000710AE8E0010AD6E0070ADCE0010AD6E020
:101E3000FDEF0EF001010E51FF0AD8E0FDEF0EF0AC
:101E400001010F51000AE4E07F0AF4E0FDEF0EF01B
:101E50002AEF0FF012000FC0E9FF10C0EAFFEF50A9
:101E60000101056F010105AF38EF0FF03AEF0FF0F8
:101E700040EF0FF00FC0E9FF10C0EAFF000EEF6E59
:101E80000101056F000E256E010105510101056F6D
:101E9000000E266E01010551000E046E000E056E47
:101EA0000101056F000E036E01010551A0EC0AF05F
:101EB000000E010101010C6F000E01010D6F000EFB
:101EC000010101010A6F000E01010B6F030E0101F8
:101ED0000101086F000E0101096FDCEC0EF0D1EC7E
:101EE00003F01200700E0101176F0F0E186F010141
:101EF0000101135101011727000E0101182317C119
:101F000015F118C116F115C1E9FF16C1EAFF01016B
:101F100014C1EFFF0101010114A591EF0FF093EF40
:101F20000FF09FEF0FF00101176F000E010101018B
:101F30001A6F0101175113C119F12CEC0DF00101B9
:101F4000010114A3A6EF0FF0A8EF0FF0B4EF0FF00C
:101F50000101176F010E010101011A6F01011751F3
:101F600013C119F12CEC0DF012000101006F0F0EDE
:101F7000C16E01010051000ED36E000E936E000E73
:101F8000946E000E956E000E966E010E816E000E20
:101F9000836E000E846E6D866F846F886F866D927F
:101FA0009D809F809E900101006F000ED56E010103
:101FB00000510B0ECF6EDB0ECE6E0101006F000ED6
:101FC000CD6E01010051D08EF28EF28C000E206E8B
:101FD000000E216E000E226E000E236E0101006FB6
:101FE000010E326E010100516AEC09F0120001018C
:101FF000096F000E266E010109510FC0E9FF10C0E4
:10200000EAFF000EEF6E040E0F1801010101076FC9
:1020100010500101086F07C1E9FF08C1EAFF000E77
:10202000EF6E09AE16EF10F018EF10F034EF10F06D
:1020300000EE0CF0EE50EE10ED10D8B422EF10F0E0
:1020400024EF10F033EF10F000EE0CF002D833EF75
:1020500010F00500FA6EEE50FD6EEE50FE6EEE5082
:10206000FF6EFA501200099E12000101106F1E0E41
:1020700001010101146F010110510101116F010EE5
:1020800001010101136F0101115172EC0FF0010107
:10209000106F400E01010101176F01011051040181
:1020A000800E01010101156F0401040E0101166F7C
:1020B0000101116F000E01010101146F01011151A5
:1020C0000101126F010E01010101136F0101125193
:1020D0002EEC0BF013C120F014C121F01200265099
:1020E000020AD8A476EF10F078EF10F07CEF10F031
:1020F00084EC06F0A7EF10F0F7EC0FF0296683EF01
:1021000010F085EF10F0A1EF10F0010E1324E96E2E
:10211000000E1420EA6E080EEF6E020E1324E96E14
:10212000000E1420EA6E0501000EEE6E0501050E8C
:10213000ED6E13C0E9FF14C0EAFF8C0EEF6EA7EF3F
:1021400010F00101056F000E296E0101055112000A
:1021500070A0ADEF10F0AFEF10F0CEEF10F0800EEA
:1021600015C0E9FF16C0EAFFEF62B9EF10F0BBEF50
:1021700010F0CDEF10F0840E0FC0E9FF10C0EAFFA1
:10218000EF62C5EF10F0C7EF10F0CDEF10F015C003
:10219000E9FF16C0EAFF8C0EEF6E7090689A12008D
:1021A00008C10EF109C10FF1E1EF10F00EC1E9FF16
:1021B0000FC1EAFF01010AC1EFFF010101010E4B4E
:1021C0000F2B010101010C07D8A00D0701010C29FB
:1021D000D8B40D29D8A4EFEF10F0F1EF10F0D6EF3E
:1021E00010F0F3EF10F01200000E010101010C6F6E
:1021F000000E01010D6F000E010101010A6F000EBA
:1022000001010B6F740E01010101086F000E010145
:10221000096FDCEC0EF06D92699410EF11F0689488
:1022200068B415EF11F017EF11F00FEF11F0120075
:10223000698468986D82000E010101010C6F000E27
:1022400001010D6F000E010101010A6F000E010175
:102250000B6F750E01010101086F000E0101096F7E
:10226000DCEC0EF01200B5EC0FF063EC02F02EEC9B
:102270000CF035EF11F00CEF00F0BDEC05F01200A2
:0A22800012001200120012001200FA
:020000040030CA
:0E000000E43EFFFEFFF19BFFFFFFFFFFFFFF4F
:00000001FF
